{
    "contractName": "Counter",
    "abi": [
        {
            "inputs": [],
            "name": "increment",
            "outputs": [],
            "stateMutability": "nonpayable",
            "type": "function"
        },
        {
            "inputs": [],
            "name": "number",
            "outputs": [
                {
                    "internalType": "uint256",
                    "name": "",
                    "type": "uint256"
                }
            ],
            "stateMutability": "view",
            "type": "function"
        },
        {
            "inputs": [
                {
                    "internalType": "uint256",
                    "name": "newNumber",
                    "type": "uint256"
                }
            ],
            "name": "setNumber",
            "outputs": [],
            "stateMutability": "nonpayable",
            "type": "function"
        }
    ],
    "bytecode": "608060405234801561000f575f80fd5b5060ec8061001c5f395ff3fe6080604052348015600e575f80fd5b5060043610603a575f3560e01c80633fb5c1cb14603e5780638381f58a14604f578063d09de08a146068575b5f80fd5b604d6049366004607d565b5f55565b005b60565f5481565b60405190815260200160405180910390f35b604d5f805490806076836093565b9190505550565b5f60208284031215608c575f80fd5b5035919050565b5f6001820160af57634e487b7160e01b5f52601160045260245ffd5b506001019056fea264697066735822122005409771e82979607d468414712e4b7149a1ed58c650f59942e51bc1aa6e9f2764736f6c63430008140033",
    "sourcePath": "c:/Users/rafan/Desktop/nata-perp/nata-perp-contracts/src/Counter.sol",
    "compiler": {
        "name": "solc",
        "version": "0.8.20+commit.a1b79de6"
    },
    "functionHashes": {
        "increment()": "d09de08a",
        "number()": "8381f58a",
        "setNumber(uint256)": "3fb5c1cb"
    },
    "gasEstimates": {
        "creation": {
            "codeDepositCost": "47200",
            "executionCost": "97",
            "totalCost": "47297"
        },
        "external": {
            "increment()": "24437",
            "number()": "2281",
            "setNumber(uint256)": "22287"
        }
    }
}